:02000000B62C1C
:0E0006000D3083120313FD00FD0B07280800C8
:0A00140000000000000000000800DA
:0A001E000320061603200612080056
:100028007F30831203171505F0007008950006113C
:100038008611BF30F005700895007017700895009C
:0A0048007008031387000F20080062
:0E0052008312031351088A0050088200080030
:1000600083120313FB01FA01F9018030F800F10C4F
:10007000F00C031C44287408F90775080318750F61
:10008000FA070318FB0A0310F01F4C287408FA073C
:1000900075080318750FFB07FB0CFA0CF90CF80C2C
:1000A000031C37287B08F3007A08F2007908F10076
:0600B0007808F0000800D2
:1000B6008312031306118611B830031715040313B0
:0600C60087000F20080076
:1000CC00FF308316031387000A200A2083120615BB
:1000DC00061286150616032007080317950006124C
:1000EC0086110A200A208316031387018312031733
:0600FC001508F0000800E9
:10010200831203130612061586110317150803132B
:0601120087000F20080029
:100118007F30831203171505F10071089500711FD0
:0E0128009828061486109A28061086140800DF
:10013600831203136D08073C0318A2284D2958089B
:100146006B02F0005908031C013EF101F10252084E
:10015600F400F5013020700803179300710894002D
:1001660003136C080317950014206D0803179500F8
:100176005B20EF0152086F02031824296C087F3CAC
:100186000318C6284D296C08031795008C20031305
:100196006D08031795005B206C0803179500142063
:1001A60066207008900066207008900003136C08A3
:1001B600031795008C2003136D08031795005B2029
:1001C6006C080317950014200317130803135A0726
:1001D600F0005B080318013E03171407F1007008CE
:1001E6000313D0007108D10029208A110A12F000E9
:1001F600700803179100930A0319940A7009920074
:1002060010290317120890001D29031711089000E2
:100216001D290317110890061D2903136E08003ABD
:10022600031904296E08013A031908296E08023ACF
:1002360003190C290317100895008120EC0AEF0A10
:10024600BD286C08031795008C2003136D0803174F
:1002560095005B206C08031795001420FF300317E8
:100266009100920144290317110890001108950086
:1002760081204D290317120890001208950081204D
:100286004D2903136E08003A031936296E08013A00
:0602960003193D290800D8
:10029C00831203136B08D4006C08D500D601D70168
:0602AC000130DD00080036
:1002B200710DF80DF90D7408F8027508031C750F1D
:1002C200F902F00DF10D0F30FC00710DF80DF90D72
:1002D2007408701C7229F8027508031C750FF90264
:1002E2007729F80775080318750FF907F00DF10D56
:1002F200FC0B6629701883297408F807750803181F
:08030200750FF9070000080067
:10030A00831203132230FC00F801F901FA01FB0100
:10031A00FC030319BB290310FB0CFA0CF90CF80CAB
:10032A00F30CF20CF10CF00C031C8D29FC030319DD
:10033A00AD297408F80775080318750FF9077608C8
:10034A000318760FFA0777080318770FFB07912926
:10035A007408F80775080318750FF9077608031863
:0E036A00760FFA0777080318770FFB070800D5
:100378000030831203136B02031CCF296B087F3CE8
:10038800031CCF2900306C02031CCF296C083F3CAA
:10039800031CCF29D0292C2A6B08031795008C2021
:1003A80003136C0803179500950C9513950C95137A
:1003B800950C95135B206B08031795001420662095
:1003C8007008900066207008900003136C080317EB
:1003D8009500950C9513950C9513950C95135B202A
:1003E8006B0803179500142007306C05F00070089F
:1003F800EE007008F1000130F00071080319082AB6
:10040800F00D7010FF3E022A7008EE007009EF0030
:100418001B2A6F0803179005282A03136E08031771
:100428009004282A03136E0803179006282A03133A
:100438006D08003A03190D2A6D08013A0319112AAB
:100448006D08023A0319162A03171008950081202F
:0204580008009A
:10045A000030831203136802031C382A68087F3CA1
:10046A00031C382A392A662A0030660203183E2AF3
:10047A00E60166083F3C0318442A3F30E600003094
:10048A0067020318492AE70167083F3C03184F2A05
:10049A003F30E700660867020318592A6608EA002F
:1004AA006708E6006A08E70066086702031C662A0E
:1004BA006808EB006608EC006908ED00BC21E60A52
:0404CA00592A0800A3
:1004CE0083120313EA015308003A031D7A2A0530FA
:1004DE00D2000730DC000030DA000C30DB002030B8
:1004EE00D8000030D9006A08660784000008031996
:1004FE00922A6A08660784000008EB006708EC0081
:10050E006808ED006908EE009B20520AF0007008A2
:08051E00E707EA0A7A2A080047
:100526000030831203136802031C9E2A68083F3CAE
:10053600031C9E2A9F2ACC2A003066020318A42A8E
:10054600E60166087F3C0318AA2A7F30E6000030E1
:1005560067020318AF2AE70167087F3C0318B52A2C
:100566007F30E700660867020318BF2A6608EA00BC
:100576006708E6006A08E70066086702031CCC2ADB
:100586006608EB006808EC006908ED00BC21E60A85
:04059600BF2A080070
:10059A00831203137408003A031DDC2A7508003A13
:1005AA00031DDC2AFF30F0007F30F100352B831267
:1005BA000313FD01F901F8017108700403190034ED
:1005CA0071087506FA00FA1BFD09FB01F51FF22AEC
:1005DA00F409F509F40A0319F50AF11FF92AF009D1
:1005EA00F109F00A0319F10A71087504FA00FA1BF5
:1005FA000E2B59217B18212BFD1F0034F009F1091C
:10060A00F00A0319F10AF809F909F80A0319F90AAB
:10061A000034F51F1D2BF11B192B7108F900700806
:10062A00F800F101F001012BF101F001F00A0034A8
:10063A00F109F009FB0AFE2AF80A0319F90A7408F3
:10064A007802031D012B75087902031D012BF9019C
:10065A00F801F00A0319F10AF11F012B0000FF3417
:02066A00080086
:10066C008312031306108614E8016808073C031C68
:10067C00502B6808031795005B20E70167083F3C87
:10068C00031C4E2B6608031795008120E70A442BA8
:10069C00E80A3B2B86100614E8016808073C031C8B
:1006AC00682B6808031795005B20E70167083F3C3F
:1006BC00031C662B6608031795008120E70A5C2B48
:0606CC00E80A532B0800B0
:1006D200831203135D08031D732B0130EB000030FE
:1006E200EC004E215408F0005508F1005608F200C3
:1006F2005708F3006D30F4004E30F500C630F600B6
:100702004130F70085213930F5003030F600F7012D
:10071200F8017008F50771080318710FF6077208DF
:100722000318720FF70773080318730FF807770897
:10073200F0007808F1000030F81BFF30F300FF30C2
:10074200F0057F30F1050030F205F3057008D400A2
:0E0752007108D5007208D6007308D7000800A1
:10076000053083120313B1000130CD000130A00029
:10077000CC01083030078400303080000230AF00F8
:10078000FF30E60036232130E6001930E700033061
:10079000E800E90167221530FB004B30FC00BE3059
:1007A000FD00FD0BD12BFC0BD12BFB0BD12B000043
:0207B00008003F
:1007B20083120313F8010830FC00700DF80D740861
:1007C200F8020318E62BF8070310F00DFC0BDE2BE2
:0207D20008001D
:1007D400831203136008E6006208E7006108E8007A
:1007E4006408E90093226008E6006208E7006308F1
:1007F400E8006408E90093226108E6006308E70062
:100804006008E8006408E9002D226108E600630836
:0E081400E7006208E8006408E9002D220800F1
:1008220069230830F4000130F500CD22700ACE00B1
:100832006923BC30F4000230F500CD22F00A7008C2
:10084200CF004E08EB007008EC000130ED00BC2137
:0208520008009C
:1008540083120313D301831686120612061186111E
:1008640006108610831286128316870183120611DE
:1008740086110610861486163F3087000F20C0307C
:1008840087000F20061486103F3087000F20C030E9
:0608940087000F200800A0
:10089A0083120313E301E401E5016308073C031C27
:1008AA00A92C031795018C200313630803179500DD
:1008BA005B20031795011420E20162083F3C031CE8
:1008CA007D2C64086007F00061080318013E650783
:1008DA00F1007008D0007108D10029208A110A128B
:1008EA00031795008120E40A0319E50AE20A622C3B
:1008FA004030031795008C200313630803179500F3
:10090A005B2040300317950014204030E200620853
:10091A007F3C031CA72C64086007F00061080318D9
:10092A00013E6507F1007008D0007108D100292046
:10093A008A110A12031795008120E40A0319E50AAD
:0A094A00E20A8C2CE30A522C08008C
:1009540029208A110A128000840AD00A0319D10AB4
:08096400F003031DAA2C08009A
:10096C00CC27FF308316031388002A240030E000C4
:10097C000830E1004D245230FB002B30FC000030DD
:10098C00FD00FD0BC72CFC0BC72CFB0BC72C000070
:10099C00E60136231124DE0105305E020318DE2C3D
:1009AC005E08EB00EC010130ED00BC21DE0AD22C1C
:1009BC00E001E1017F30E2003230E3000130E4007D
:1009CC00EA233008E600E7010730E8000130E900CF
:1009DC006722081CF32C0330AF00881CF72C023064
:1009EC00AF00081DFB2C0130AF00881DFE2CAF01A1
:1009FC00081E022DB023CE2C2F08023A031D822D87
:100A0C00CD0A4D087E3C03180D2DB023CE2C0130A1
:100A1C003102F300F401031CF4037308F0007408B2
:100A2C00F100F00DF10D70107008A03E84004D081F
:100A3C00800001303102F300F401031CF40373084D
:100A4C00F0007408F100F00DF10D7010A030F007FB
:100A5C00700A840020088000DE0101303102F100B0
:100A6C00F201031CF2038030F00080307206700239
:100A7C00031D422D71085E020318822D5E08F000E2
:100A8C00F00D70107008A03EF5005E08013EF300FA
:100A9C00F4010318F40A7308F0007408F100F00D67
:100AAC00F10D70107008A03E84000008F00075086D
:100ABC008400700880005E08F000F00D7010A0300B
:100ACC00F007700AF5005E08013EF300F40103180C
:100ADC00F40A7308F0007408F100F00DF10D7010B9
:100AEC00A030F007700A84000008F000750884003C
:100AFC0070088000DE0A332D2F08033A031D022EE6
:100B0C00A00A2008313C03188D2DB023CE2C0130C7
:100B1C003102F300F401031CF4037308F0007408B1
:100B2C00F100F00DF10D7010A030F007700A840088
:100B3C002008800001303102F300F401031CF4039F
:100B4C007308F0007408F100F00DF10D70107008CE
:100B5C00A03E84004D088000DE0101303102F1001E
:100B6C00F201031CF2038030F00080307206700238
:100B7C00031DC22D71085E020318022E5E08F000E0
:100B8C00F00D7010A030F007700AF5005E08013E01
:100B9C00F300F4010318F40A7308F0007408F10070
:100BAC00F00DF10D7010A030F007700A84000008F1
:100BBC00F00075088400700880005E08F000F00DED
:100BCC0070107008A03EF5005E08013EF300F401C1
:100BDC000318F40A7308F0007408F100F00DF10D1D
:100BEC0070107008A03E84000008F00075088400A6
:100BFC0070088000DE0AB32D2F08013A031D822EE7
:100C0C00A0030130200203180D2EB023CE2C01308E
:100C1C003102F300F401031CF4037308F0007408B0
:100C2C00F100F00DF10D7010A030F007700A840087
:100C3C002008800001303102F300F401031CF4039E
:100C4C007308F0007408F100F00DF10D70107008CD
:100C5C00A03E84004D088000DE0101303102F1001D
:100C6C00F201031CF2038030F00080307206700237
:100C7C00031D422E71085E020318822E5E08F000DE
:100C8C00F00D7010A030F007700AF5005E08013E00
:100C9C00F300F4010318F40A7308F0007408F1006F
:100CAC00F00DF10D7010A030F007700A84000008F0
:100CBC00F00075088400700880005E08F000F00DEC
:100CCC0070107008A03EF5005E08013EF300F401C0
:100CDC000318F40A7308F0007408F100F00DF10D1C
:100CEC0070107008A03E84000008F00075088400A5
:100CFC0070088000DE0A332E2F08003A031D022FE5
:100D0C00CD0301304D0203188D2EB023CE2C0130B3
:100D1C003102F300F401031CF4037308F0007408AF
:100D2C00F100F00DF10D7010A030F007700A840086
:100D3C002008800001303102F300F401031CF4039D
:100D4C007308F0007408F100F00DF10D70107008CC
:100D5C00A03E84004D088000DE0101303102F1001C
:100D6C00F201031CF2038030F00080307206700236
:100D7C00031DC22E71085E020318022F5E08F000DC
:100D8C00F00D7010A030F007700AF5005E08013EFF
:100D9C00F300F4010318F40A7308F0007408F1006E
:100DAC00F00DF10D7010A030F007700A84000008EF
:100DBC00F00075088400700880005E08F000F00DEB
:100DCC0070107008A03EF5005E08013EF300F401BF
:100DDC000318F40A7308F0007408F100F00DF10D1B
:100DEC0070107008A03E84000008F00075088400A4
:100DFC0070088000DE0AB32EDE0131085E02031893
:100E0C001A2F5E08F000F00D7010A030F00770087B
:100E1C0084000008EB00700A84000008EC0001302C
:100E2C00ED00BC21DE0A032F831620088312EB0091
:100E3C00831621088312EC00ED01BC214D084E06EF
:100E4C00031D7A2F20084F06031D7A2FB10A263076
:100E5C003102031C522F0530B1000130CD0001309E
:100E6C00A000CC010230AF00FF30E6003623323058
:100E7C00E6001930E7000330E800E9016722293069
:100E8C00FB009630FC007F30FD00FD0B4B2FFC0B64
:100E9C004B2FFB0B4B2FCE2C1124CC0A07303007D9
:100EAC00DF000A30F4004C08F000D9233030F00792
:100EBC005F0884007008800008303007DF000A30BB
:100ECC00F4004C08F000D9237808F0003030F0071B
:100EDC005F088400700880003008E600E7010730E6
:100EEC00E8000130E9006722DE013108F400F50169
:100EFC00C230F0000130F100CD228030F2008030A1
:100F0C0071067202031D8C2F70085E020318992F54
:100F1C000630FC003030FD00FD0B922FFC0B922FA5
:0A0F2C000000DE0A7B2FEF2C9A2F45
:100F9800203084002C3083120313F000A030D000DE
:080FA8000730D100AA24080063
:020F400001347A
:100F4200473441344D34453420344F3456344534DB
:0C0F520052342034213421342134003486
:020F5E0002345B
:020F6000423419
:020F6200053454
:100F640056344F34433445342034473441344E34BA
:100F740048344F345534203421342134213400345E
:100F8400533463346F34723465343A342034303437
:040F940030340034C1
:1010000000340034F8343834E0340034E034383418
:10101000F834E8340034C0342034203420344034F0
:101020000034E0342034C034203420342034C03440
:10103000C0342034203420344034C03420342034B0
:101040002034C034E03420342034C0340034203420
:10105000F03420340034E0342034C03420342034E0
:101060002034C034F83400342034A034A034A03408
:10107000E034E03420342034C0340034C034203430
:101080002034F8340034C034203420342034C034C8
:101090004034E034A03420340034003400340034D0
:1010A0000034003400340034003400340034803420
:1010B0008034C034C034E034303490345834783420
:1010C0003C3494349C340C3408348E348E341A34CA
:1010D0003234643434349C3498344834583498343A
:1010E0001034F03400340034003400340034003460
:1010F0000034003400340034003400340034003450
:101100000034003403340034013402340134003438
:101110000334033400340134023402340234013421
:101120000034033400340134023402340234013414
:101130000134023402340234013401340234023402
:1011400002340134033400340034033400340034F6
:1011500003340234003403340034013402340234E2
:1011600002340134033400340334023402340234D0
:1011700003340334003400340334003401340234C3
:1011800002340334003401340234023402340134B2
:101190000134023402340134F034BC3484349634E3
:1011A0001634B334A3342D341B344D34B334533498
:1011B00046348E3486348A348F3489341C34373440
:1011C000E134E434E4342634103418341D34123459
:1011D0000F3406340534263428346C3467346934CB
:1011E00016349F34A2343A345634FC34B8340034C4
:1011F000003400340034003400340034003400344F
:10120000003400340034003400340034003400343E
:10121000003400340034003400340034603490343E
:101220009034903420340034F0346034803400340E
:10123000F03400340034803460341034603480344E
:101240000034F03480344034203410340034F0342E
:1012500090349034903490340034003400340034AE
:10126000E034103410349034A0340034003480342E
:101270006034103460348034F0347034C03400345E
:10128000C0347034F0340034F034903490349034FE
:10129000903400340034003401340334063405340F
:1012A0000D340A34143413341834283437346A347F
:1012B000AA342A34E2346A347234FD346134253479
:1012C0001934E1340334023404340C340834103457
:1012D0002034C0348034003400348034403440340E
:1012E00080348034003401340334023405340B3448
:1012F0001A34243418343034C03400340034003408
:1013000000340034003400340034003404348034B9
:101310008034083400342034203448345234943437
:101320002434443483340034073400340034033428
:1013300007340034043403340134013401340334F9
:1013400004340734003401340234043400340734E4
:1013500004340434043404340034003400340034DD
:1013600003340434043484348334803404348334C4
:10137000813481342134A3348734A0342334243499
:101380002334003447344034073484340434043480
:1013900004340034003400340034003400340034A9
:1013A000003400340034003400340034003400349D
:1013B00001340334063419343134D534293420341B
:1013C000FF3403340034003400340034003400347B
:1013D0000034003401340334023405345E34EC3418
:1013E0000D349A34F734F134163410340034203488
:1013F00000345234F134503439340F340034003472
:10140000003400340034003400340034003401343B
:10141000023405340934FA348C349834303460346E
:101420008034003407340034003400340034003495
:10143000003400340034003400340034003400340C
:1014400000340034003400340034003400340034FC
:1014500000340034003400340034003400340234EA
:1014600003348134E0343034183438341C34EC34F0
:1014700044345C3444344C345434EC341C345534EB
:101480002D349A3458347034B03420344034C0345D
:10149000803400340034003400340034003400342C
:1014A000003400340034003400340034003400349C
:1014B00000340034003400340034003403341F346A
:1014C000F53493345A34DE3414343C34C434883420
:1014D00088348834BC348C3408340C3417343934B0
:1014E000F03420340034003400340034003400344C
:1014F000003400340034003400340034003400344C
:101500000034003400348034C03440346034B034AB
:10151000B0348834C43477342834363415340C3439
:101520000734003400340034E034F8342434BA345E
:101530009E3471342F342B34273416346234D6342D
:101540004A34DC343C349834503430346034C03461
:10155000803400340034003400340034003400346B
:101560000034FF34D634D53458344734BD34603475
:10157000A13421341C34E334813401340334023483
:1015800004340A34173429347234D53494340C3486
:101590002334533457345634AC3478341034E03474
:1015A000C03480340034003400340034003400345B
:1015B000003400340034003400340034003480340B
:1015C000FF34EB342134AD344C3412341134E03474
:1015D0000F34F234613463344C3458346034C034E2
:1015E0008134063409341634103424340834303449
:1015F0000034083400340434023404340034003439
:101600000034003400340F341034293446344B3461
:101610009434BB3424345C34B834D834D034F0340B
:1016200010344034A03470349D34F6340934EA3434
:10163000063413340834E8342834283406341C348F
:10164000B134C33406341A343534C5349D34663469
:1016500042349B34A6349E3468341834D034303449
:1016600070346F34C9341134F53412340934003411
:101670000134FF34E13421346134313436341C34E4
:10168000F034803400340034003400340134033446
:1016900007340D3419343734683443349234BA344F
:1016A000653443341D3417341E34EC343C34183460
:1016B000683498345834183438344C349E34953463
:1016C0001A3412340234823446343A3402348134C7
:1016D000E034BF3414349034903490348C348C34EF
:1016E0008F34DF34F83400340034003400340034F4
:1016F000003400340034003400340034003400344A
:101700000034003400340034003400340034003439
:10171000003401340134013402340234043404341A
:101720000534023404340D340C3408340A340934DA
:101730000834083404340B340A34003404340234DA
:1017400001340034003400340034003401340334F4
:10175000063404340834083413340434143419348B
:101760001A341A341934163413341034103408343B
:101770001434173411341034183408340834043451
:1017800007340134003400340034003400340034B1
:1017900000340034003400340034003400340134A8
:1017A000033402340434043408340B341C34143449
:1017B000143410342034243424342234213420349A
:1017C000213421345134383468346434623421345F
:1017D00021342934293429341934113404340C3493
:1017E000063403340134003400340034003400344F
:1017F0000034003400340034003400340034003449
:1018000000340034003400340034003400345F34D9
:101810000034003400340734003407340034143406
:101820007F3414347F34143424342A347F342A34FB
:101830001234233413340834643462343634493473
:101840005534223450340034053403340034003429
:1018500000341C3422344134003400344134223406
:101860001C34003408342A341C342A340834083434
:1018700008343E34083408340034503430340034F2
:101880000034083408340834083408340034303460
:10189000303400340034203410340834043402343A
:1018A0003E345134493445343E34003442347F347C
:1018B00040340034423461345134493446342134A4
:1018C000413445344B3431341834143412347F34B9
:1018D0001034273445344534453439343C344A34A3
:1018E0004934493430340134713409340534033413
:1018F0003634493449344934363406344934493469
:1019000029341E3400343634363400340034003484
:10191000563436340034003400340834143422345D
:10192000413414341434143414341434413422340F
:101930001434083400340234013451340934063488
:1019400032344934793441343E347E3411341134E4
:1019500011347E347F3449344934493436343E348A
:1019600041344134413422347F34413441342234CF
:101970001C347F3449344934493441347F34093488
:101980000934013401343E34413441345134323469
:101990007F340834083408347F34003441347F34D1
:1019A000413400342034403441343F3401347F34F6
:1019B00008341434223441347F34403440344034C9
:1019C00040347F340234043402347F347F340434AE
:1019D000083410347F343E344134413441343E3491
:1019E0007F3409340934093406343E3441345134E7
:1019F00021345E347F340934193429344634463472
:101A00004934493449343134013401347F340134A8
:101A100001343F344034403440343F341F342034A8
:101A2000403420341F347F342034183420347F3441
:101A30006334143408341434633403340434783491
:101A4000043403346134513449344534433400346C
:101A500000347F34413441340234043408341034C7
:101A60002034413441347F340034003404340234AF
:101A7000013402340434403440344034403440347F
:101A800000340134023404340034203454345434E7
:101A9000543478347F34483444344434383438341B
:101AA00044344434443420343834443444344834A2
:101AB0007F343834543454345434183408347E3435
:101AC00009340134023408341434543454343C346A
:101AD0007F340834043404347834003444347D349E
:101AE000403400342034403444343D340034003435
:101AF0007F34103428344434003441347F3440344B
:101B000000347C3404341834043478347C3408349D
:101B10000434043478343834443444344434383469
:101B20007C34143414341434083408341434143425
:101B300018347C347C340834043404340834483495
:101B4000543454345434203404343F344434403412
:101B500020343C344034403420347C341C34203431
:101B6000403420341C343C344034303440343C3431
:101B7000443428341034283444340C345034503431
:101B800050343C344434643454344C34443400349D
:101B90000834363441340034003400347F340034A7
:101BA0000034003441343634083400340834083406
:101BB0002A341C34083408341C342A3408340834D9
:02400E004A2F37
:00000001FF
